{"abi":[{"type":"constructor","inputs":[{"name":"_hashToken","type":"address","internalType":"address"},{"name":"_initialJackpot","type":"uint256","internalType":"uint256"}],"stateMutability":"nonpayable"},{"type":"function","name":"NUM_BUCKETS","inputs":[],"outputs":[{"name":"","type":"uint8","internalType":"uint8"}],"stateMutability":"view"},{"type":"function","name":"auctions","inputs":[{"name":"","type":"uint256","internalType":"uint256"}],"outputs":[{"name":"auctionId","type":"uint256","internalType":"uint256"},{"name":"startTime","type":"uint256","internalType":"uint256"},{"name":"revealTime","type":"uint256","internalType":"uint256"},{"name":"endTime","type":"uint256","internalType":"uint256"},{"name":"jackpot","type":"uint256","internalType":"uint256"},{"name":"totalBids","type":"uint256","internalType":"uint256"},{"name":"finalized","type":"bool","internalType":"bool"},{"name":"winner","type":"address","internalType":"address"},{"name":"winningBid","type":"uint256","internalType":"uint256"}],"stateMutability":"view"},{"type":"function","name":"authorizedFeeders","inputs":[{"name":"","type":"address","internalType":"address"}],"outputs":[{"name":"","type":"bool","internalType":"bool"}],"stateMutability":"view"},{"type":"function","name":"biddingDuration","inputs":[],"outputs":[{"name":"","type":"uint256","internalType":"uint256"}],"stateMutability":"view"},{"type":"function","name":"bids","inputs":[{"name":"","type":"uint256","internalType":"uint256"},{"name":"","type":"address","internalType":"address"}],"outputs":[{"name":"commitment","type":"bytes32","internalType":"bytes32"},{"name":"bucket","type":"uint8","internalType":"uint8"},{"name":"deposit","type":"uint256","internalType":"uint256"},{"name":"revealed","type":"bool","internalType":"bool"},{"name":"revealedAmount","type":"uint256","internalType":"uint256"}],"stateMutability":"view"},{"type":"function","name":"bucketCounts","inputs":[{"name":"","type":"uint256","internalType":"uint256"},{"name":"","type":"uint8","internalType":"uint8"}],"outputs":[{"name":"","type":"uint256","internalType":"uint256"}],"stateMutability":"view"},{"type":"function","name":"bucketMaxs","inputs":[{"name":"","type":"uint256","internalType":"uint256"}],"outputs":[{"name":"","type":"uint256","internalType":"uint256"}],"stateMutability":"view"},{"type":"function","name":"bucketMins","inputs":[{"name":"","type":"uint256","internalType":"uint256"}],"outputs":[{"name":"","type":"uint256","internalType":"uint256"}],"stateMutability":"view"},{"type":"function","name":"claimRefund","inputs":[{"name":"auctionId","type":"uint256","internalType":"uint256"}],"outputs":[],"stateMutability":"nonpayable"},{"type":"function","name":"claimUnrevealedDeposit","inputs":[{"name":"auctionId","type":"uint256","internalType":"uint256"}],"outputs":[],"stateMutability":"nonpayable"},{"type":"function","name":"claimWinnings","inputs":[{"name":"auctionId","type":"uint256","internalType":"uint256"}],"outputs":[],"stateMutability":"nonpayable"},{"type":"function","name":"claimed","inputs":[{"name":"","type":"uint256","internalType":"uint256"},{"name":"","type":"address","internalType":"address"}],"outputs":[{"name":"","type":"bool","internalType":"bool"}],"stateMutability":"view"},{"type":"function","name":"currentAuctionId","inputs":[],"outputs":[{"name":"","type":"uint256","internalType":"uint256"}],"stateMutability":"view"},{"type":"function","name":"feedJackpot","inputs":[{"name":"amount","type":"uint256","internalType":"uint256"}],"outputs":[],"stateMutability":"nonpayable"},{"type":"function","name":"finalizeAuction","inputs":[],"outputs":[],"stateMutability":"nonpayable"},{"type":"function","name":"generateCommitment","inputs":[{"name":"amount","type":"uint256","internalType":"uint256"},{"name":"secret","type":"bytes32","internalType":"bytes32"}],"outputs":[{"name":"","type":"bytes32","internalType":"bytes32"}],"stateMutability":"pure"},{"type":"function","name":"getBucket","inputs":[{"name":"amount","type":"uint256","internalType":"uint256"}],"outputs":[{"name":"","type":"uint8","internalType":"uint8"}],"stateMutability":"view"},{"type":"function","name":"getBucketCounts","inputs":[],"outputs":[{"name":"","type":"uint256[6]","internalType":"uint256[6]"}],"stateMutability":"view"},{"type":"function","name":"getCurrentAuction","inputs":[],"outputs":[{"name":"auctionId","type":"uint256","internalType":"uint256"},{"name":"revealTime","type":"uint256","internalType":"uint256"},{"name":"endTime","type":"uint256","internalType":"uint256"},{"name":"jackpot","type":"uint256","internalType":"uint256"},{"name":"totalBids","type":"uint256","internalType":"uint256"},{"name":"finalized","type":"bool","internalType":"bool"}],"stateMutability":"view"},{"type":"function","name":"hasBid","inputs":[{"name":"user","type":"address","internalType":"address"}],"outputs":[{"name":"","type":"bool","internalType":"bool"}],"stateMutability":"view"},{"type":"function","name":"hashToken","inputs":[],"outputs":[{"name":"","type":"address","internalType":"contract IERC20"}],"stateMutability":"view"},{"type":"function","name":"losersRefundPercent","inputs":[],"outputs":[{"name":"","type":"uint256","internalType":"uint256"}],"stateMutability":"view"},{"type":"function","name":"maxGapPercent","inputs":[],"outputs":[{"name":"","type":"uint256","internalType":"uint256"}],"stateMutability":"view"},{"type":"function","name":"minBid","inputs":[],"outputs":[{"name":"","type":"uint256","internalType":"uint256"}],"stateMutability":"view"},{"type":"function","name":"owner","inputs":[],"outputs":[{"name":"","type":"address","internalType":"address"}],"stateMutability":"view"},{"type":"function","name":"placeBid","inputs":[{"name":"commitment","type":"bytes32","internalType":"bytes32"},{"name":"bucket","type":"uint8","internalType":"uint8"},{"name":"deposit","type":"uint256","internalType":"uint256"}],"outputs":[],"stateMutability":"nonpayable"},{"type":"function","name":"renounceOwnership","inputs":[],"outputs":[],"stateMutability":"nonpayable"},{"type":"function","name":"revealBid","inputs":[{"name":"amount","type":"uint256","internalType":"uint256"},{"name":"secret","type":"bytes32","internalType":"bytes32"}],"outputs":[],"stateMutability":"nonpayable"},{"type":"function","name":"revealDuration","inputs":[],"outputs":[{"name":"","type":"uint256","internalType":"uint256"}],"stateMutability":"view"},{"type":"function","name":"revealedBidders","inputs":[{"name":"","type":"uint256","internalType":"uint256"},{"name":"","type":"uint256","internalType":"uint256"}],"outputs":[{"name":"","type":"address","internalType":"address"}],"stateMutability":"view"},{"type":"function","name":"seedJackpot","inputs":[{"name":"amount","type":"uint256","internalType":"uint256"}],"outputs":[],"stateMutability":"nonpayable"},{"type":"function","name":"setAuthorizedFeeder","inputs":[{"name":"feeder","type":"address","internalType":"address"},{"name":"authorized","type":"bool","internalType":"bool"}],"outputs":[],"stateMutability":"nonpayable"},{"type":"function","name":"setLosersRefundPercent","inputs":[{"name":"_losersRefundPercent","type":"uint256","internalType":"uint256"}],"outputs":[],"stateMutability":"nonpayable"},{"type":"function","name":"setMaxGapPercent","inputs":[{"name":"_maxGapPercent","type":"uint256","internalType":"uint256"}],"outputs":[],"stateMutability":"nonpayable"},{"type":"function","name":"setMinBid","inputs":[{"name":"_minBid","type":"uint256","internalType":"uint256"}],"outputs":[],"stateMutability":"nonpayable"},{"type":"function","name":"transferOwnership","inputs":[{"name":"newOwner","type":"address","internalType":"address"}],"outputs":[],"stateMutability":"nonpayable"},{"type":"event","name":"AuctionFinalized","inputs":[{"name":"auctionId","type":"uint256","indexed":true,"internalType":"uint256"},{"name":"winner","type":"address","indexed":false,"internalType":"address"},{"name":"winningBid","type":"uint256","indexed":false,"internalType":"uint256"},{"name":"jackpot","type":"uint256","indexed":false,"internalType":"uint256"}],"anonymous":false},{"type":"event","name":"AuctionStarted","inputs":[{"name":"auctionId","type":"uint256","indexed":true,"internalType":"uint256"},{"name":"revealTime","type":"uint256","indexed":false,"internalType":"uint256"},{"name":"jackpot","type":"uint256","indexed":false,"internalType":"uint256"}],"anonymous":false},{"type":"event","name":"BidInvalidated","inputs":[{"name":"auctionId","type":"uint256","indexed":true,"internalType":"uint256"},{"name":"bidder","type":"address","indexed":true,"internalType":"address"},{"name":"amount","type":"uint256","indexed":false,"internalType":"uint256"},{"name":"gapPercent","type":"uint256","indexed":false,"internalType":"uint256"}],"anonymous":false},{"type":"event","name":"BidPlaced","inputs":[{"name":"auctionId","type":"uint256","indexed":true,"internalType":"uint256"},{"name":"bidder","type":"address","indexed":true,"internalType":"address"},{"name":"bucket","type":"uint8","indexed":false,"internalType":"uint8"}],"anonymous":false},{"type":"event","name":"BidRevealed","inputs":[{"name":"auctionId","type":"uint256","indexed":true,"internalType":"uint256"},{"name":"bidder","type":"address","indexed":true,"internalType":"address"},{"name":"amount","type":"uint256","indexed":false,"internalType":"uint256"}],"anonymous":false},{"type":"event","name":"JackpotFed","inputs":[{"name":"source","type":"address","indexed":true,"internalType":"address"},{"name":"amount","type":"uint256","indexed":false,"internalType":"uint256"}],"anonymous":false},{"type":"event","name":"OwnershipTransferred","inputs":[{"name":"previousOwner","type":"address","indexed":true,"internalType":"address"},{"name":"newOwner","type":"address","indexed":true,"internalType":"address"}],"anonymous":false},{"type":"event","name":"RefundClaimed","inputs":[{"name":"auctionId","type":"uint256","indexed":true,"internalType":"uint256"},{"name":"bidder","type":"address","indexed":true,"internalType":"address"},{"name":"amount","type":"uint256","indexed":false,"internalType":"uint256"}],"anonymous":false},{"type":"event","name":"WinningsClaimed","inputs":[{"name":"auctionId","type":"uint256","indexed":true,"internalType":"uint256"},{"name":"winner","type":"address","indexed":true,"internalType":"address"},{"name":"amount","type":"uint256","indexed":false,"internalType":"uint256"}],"anonymous":false},{"type":"error","name":"OwnableInvalidOwner","inputs":[{"name":"owner","type":"address","internalType":"address"}]},{"type":"error","name":"OwnableUnauthorizedAccount","inputs":[{"name":"account","type":"address","internalType":"address"}]},{"type":"error","name":"ReentrancyGuardReentrantCall","inputs":[]},{"type":"error","name":"SafeERC20FailedOperation","inputs":[{"name":"token","type":"address","internalType":"address"}]}],"bytecode":{"object":"0x6101606040525f60a0908152681b1ae4d6e2ef50000060c052683635c9adc5dea0000060e052686c6b935b8bbd4000006101005269010f0cf064dd592000006101205269021e19e0c9bab240000061014052620000619060029060066200030b565b506040518060c00160405280681b1ae4d6e2ef5000008152602001683635c9adc5dea000008152602001686c6b935b8bbd400000815260200169010f0cf064dd59200000815260200169021e19e0c9bab240000081526020015f198152506008906006620000d192919062000359565b50601e600f55605a60105568056bc75e2d631000006011556208f43060125561465060135534801562000102575f80fd5b5060405162002567380380620025678339810160408190526200012591620003a0565b33806200014b57604051631e4fbdf760e01b81525f600482015260240160405180910390fd5b62000156816200017b565b50600180556001600160a01b0382166080526200017381620001ca565b505062000424565b5f80546001600160a01b038381166001600160a01b0319831681178455604051919092169283917f8be0079c531659141344cd1fd0a4f28419497f9722a3daafe3b4186f6b6457e09190a35050565b600e8054905f620001db83620003ed565b91905055505f60125442620001f1919062000408565b90505f6013548262000204919062000408565b6040805161012081018252600e805480835242602080850191825284860189815260608601888152608087018c81525f60a0890181815260c08a0182815260e08b01838152610100808d018581529a855260148952938d90209b518c55975160018c0155945160028b0155925160038a01559051600489015590516005880155905160068701805494516001600160a81b0319909516911515610100600160a81b031916919091176001600160a01b039094169091029290921790915590516007909301929092555482518681529182018790529293507f44c53be110c6aa83aa83cd02e351ed172359268272ee1b5d31c0fe48db35c6c7910160405180910390a2505050565b826006810192821562000347579160200282015b828111156200034757825182906001600160501b03169055916020019190600101906200031f565b50620003559291506200038a565b5090565b826006810192821562000347579160200282015b82811115620003475782518255916020019190600101906200036d565b5b8082111562000355575f81556001016200038b565b5f8060408385031215620003b2575f80fd5b82516001600160a01b0381168114620003c9575f80fd5b6020939093015192949293505050565b634e487b7160e01b5f52601160045260245ffd5b5f60018201620004015762000401620003d9565b5060010190565b808201808211156200041e576200041e620003d9565b92915050565b608051612100620004675f395f818161051401528181610692015281816107d901528181610a1801528181610f02015281816110db015261137e01526121005ff3fe608060405234801561000f575f80fd5b5060043610610213575f3560e01c806384f4e3761161011f578063c8e7b31d116100a9578063dae69dbe11610079578063dae69dbe146105da578063dcb66f12146105ed578063f078c5f81461064f578063f2fde38b14610662578063f77282ab14610675575f80fd5b8063c8e7b31d14610564578063d05445841461056d578063d2639dbf14610580578063d5ed6e95146105b8575f80fd5b806391f65c27116100ef57806391f65c27146104fa578063b8b7edb21461050f578063baa6e40d14610536578063bdcafa2514610549578063c56ca84e1461055c575f80fd5b806384f4e376146104b1578063886a6de1146104c45780638aaeb728146104cd5780638da5cb5b146104d6575f80fd5b80633e109a19116101a057806362c5424a1161017057806362c5424a14610455578063647ed8171461046857806365fe45ed14610471578063677bd9ff14610496578063715018a6146104a9575f80fd5b80633e109a191461030e5780633f1ffcec14610317578063571a26a01461038f5780635b7baf6414610442575f80fd5b806312874688116101e6578063128746881461029857806314156ad0146102ab578063338205d2146102be578063358a5ca7146102d15780633695e3ed146102fb575f80fd5b806302950fb91461021757806305ad0b631461022c5780630c0b86ca14610252578063120aa8771461025b575b5f80fd5b61022a610225366004611e3f565b61067d565b005b61023f61023a366004611e56565b6106e5565b6040519081526020015b60405180910390f35b61023f600e5481565b610288610269366004611e91565b601860209081525f928352604080842090915290825290205460ff1681565b6040519015158152602001610249565b61022a6102a6366004611e3f565b610714565b61022a6102b9366004611e3f565b610721565b61022a6102cc366004611e3f565b61077d565b61023f6102df366004611ecb565b601660209081525f928352604080842090915290825290205481565b61023f610309366004611e3f565b610861565b61023f60115481565b610363610325366004611e91565b601560209081525f928352604080842090915290825290208054600182015460028301546003840154600490940154929360ff928316939192169085565b6040805195865260ff90941660208601529284019190915215156060830152608082015260a001610249565b6103f361039d366004611e3f565b60146020525f90815260409020805460018201546002830154600384015460048501546005860154600687015460079097015495969495939492939192909160ff82169161010090046001600160a01b03169089565b60408051998a5260208a0198909852968801959095526060870193909352608086019190915260a0850152151560c08401526001600160a01b031660e083015261010082015261012001610249565b61022a610450366004611e3f565b610877565b61022a610463366004611e56565b610a87565b61023f600f5481565b61048461047f366004611e3f565b610d72565b60405160ff9091168152602001610249565b61022a6104a4366004611e3f565b610de8565b61022a610f6b565b61022a6104bf366004611e3f565b610f7e565b61023f60135481565b61023f60105481565b5f546001600160a01b03165b6040516001600160a01b039091168152602001610249565b610502611183565b6040516102499190611eec565b6104e27f000000000000000000000000000000000000000000000000000000000000000081565b6104e2610544366004611e56565b6111f1565b61023f610557366004611e3f565b611225565b610484600681565b61023f60125481565b61022a61057b366004611f1c565b611234565b61028861058e366004611f4e565b600e545f9081526015602090815260408083206001600160a01b0390941683529290522054151590565b6102886105c6366004611f4e565b60196020525f908152604090205460ff1681565b61022a6105e8366004611f6e565b6114ad565b600e545f9081526014602090815260409182902080546002820154600383015460048401546005850154600690950154875194855295840192909252948201949094526060810193909352608083015260ff16151560a082015260c001610249565b61022a61065d366004611e3f565b6114df565b61022a610670366004611f4e565b611538565b61022a611572565b6106856119d1565b6106ba6001600160a01b037f0000000000000000000000000000000000000000000000000000000000000000163330846119fd565b600e545f90815260146020526040812060040180548392906106dd908490611fbb565b909155505050565b604080516020808201859052818301849052825180830384018152606090920190925280519101205b92915050565b61071c6119d1565b601155565b6107296119d1565b5f81118015610739575060648111155b6107785760405162461bcd60e51b815260206004820152600b60248201526a0496e76616c6964206761760ac1b60448201526064015b60405180910390fd5b600f55565b335f9081526019602052604090205460ff166107cc5760405162461bcd60e51b815260206004820152600e60248201526d139bdd08185d5d1a1bdc9a5e995960921b604482015260640161076f565b6108016001600160a01b037f0000000000000000000000000000000000000000000000000000000000000000163330846119fd565b600e545f9081526014602052604081206004018054839290610824908490611fbb565b909155505060405181815233907f0975b878b785695b9be76f88dc4c8c8edc665da9dd9b48c7bffbc0c313a8a55e9060200160405180910390a250565b60088160068110610870575f80fd5b0154905081565b61087f611a6a565b5f81815260146020908152604080832060158352818420338552909252909120600682015460ff166108c35760405162461bcd60e51b815260040161076f90611fce565b600682015461010090046001600160a01b031633036109245760405162461bcd60e51b815260206004820152601960248201527f57696e6e6572207573657320636c61696d57696e6e696e677300000000000000604482015260640161076f565b5f83815260186020908152604080832033845290915290205460ff161561095d5760405162461bcd60e51b815260040161076f90611ff5565b600381015460ff166109a45760405162461bcd60e51b815260206004820152601060248201526f109a59081b9bdd081c995d99585b195960821b604482015260640161076f565b5f8381526018602090815260408083203384529091528120805460ff1916600117905560105460048301546064916109db9161201e565b6109e59190612035565b90505f826004015483600201546109fc9190612054565b90505f610a098284611fbb565b9050610a3f6001600160a01b037f0000000000000000000000000000000000000000000000000000000000000000163383611a94565b604051818152339087907ff3f402280ef0a7905e124aa621b65eaeb2725c343e8b36d398ed78c29daf285c9060200160405180910390a35050505050610a8460018055565b50565b610a8f611a6a565b600e545f908152601460209081526040808320601583528184203385529092529091206002820154421015610afb5760405162461bcd60e51b815260206004820152601260248201527114995d99585b081b9bdd081cdd185c9d195960721b604482015260640161076f565b81600301544210610b445760405162461bcd60e51b815260206004820152601360248201527214995d99585b081c195c9a5bd908195b991959606a1b604482015260640161076f565b8054610b815760405162461bcd60e51b815260206004820152600c60248201526b139bc8189a5908199bdd5b9960a21b604482015260640161076f565b600381015460ff1615610bc95760405162461bcd60e51b815260206004820152601060248201526f105b1c9958591e481c995d99585b195960821b604482015260640161076f565b6040805160208082018790528183018690528251808303840181526060909201909252805191012081548114610c325760405162461bcd60e51b815260206004820152600e60248201526d125b9d985b1a59081c995d99585b60921b604482015260640161076f565b5f610c3c86610d72565b600184015490915060ff808316911614610c8a5760405162461bcd60e51b815260206004820152600f60248201526e084eac6d6cae840dad2e6dac2e8c6d608b1b604482015260640161076f565b8583600201541015610cd55760405162461bcd60e51b815260206004820152601460248201527311195c1bdcda5d081a5b9cdd59999a58da595b9d60621b604482015260640161076f565b60038301805460ff1916600190811790915560048401879055600e80545f908152601760209081526040808320805495860181558352912090920180546001600160a01b03191633908117909155905491519091907f86d2fbc9069d34216ebc65b38ce840528d3f8cac0c86d2aaa7ab6a9db8bc35d390610d59908a815260200190565b60405180910390a350505050610d6e60018055565b5050565b5f805b600660ff82161015610ddb5760028160ff1660068110610d9757610d97612067565b01548310158015610dbe575060088160ff1660068110610db957610db9612067565b015483105b15610dc95792915050565b80610dd38161207b565b915050610d75565b5061070e60016006612099565b610df0611a6a565b5f818152601460205260409020600681015460ff16610e215760405162461bcd60e51b815260040161076f90611fce565b600681015461010090046001600160a01b03163314610e6f5760405162461bcd60e51b815260206004820152600a6024820152692737ba103bb4b73732b960b11b604482015260640161076f565b5f82815260186020908152604080832033845290915290205460ff1615610ea85760405162461bcd60e51b815260040161076f90611ff5565b5f82815260186020908152604080832033808552908352818420805460ff1916600117905585845260158352818420908452909152812060049081015490830154610ef39190611fbb565b9050610f296001600160a01b037f0000000000000000000000000000000000000000000000000000000000000000163383611a94565b604051818152339084907f5380cf6fe903b40c6d5a9e0dfbca2f3a423f0a21520b4d5947ed5169bdba946d9060200160405180910390a35050610a8460018055565b610f736119d1565b610f7c5f611ac5565b565b610f86611a6a565b5f81815260146020908152604080832060158352818420338552909252909120600682015460ff16610fca5760405162461bcd60e51b815260040161076f90611fce565b600381015460ff16156110125760405162461bcd60e51b815260206004820152601060248201526f109a59081dd85cc81c995d99585b195960821b604482015260640161076f565b5f83815260186020908152604080832033845290915290205460ff161561104b5760405162461bcd60e51b815260040161076f90611ff5565b5f81600201541161108b5760405162461bcd60e51b815260206004820152600a602482015269139bc819195c1bdcda5d60b21b604482015260640161076f565b5f8381526018602090815260408083203384529091528120805460ff1916600117905560105460028301546064916110c29161201e565b6110cc9190612035565b90506111026001600160a01b037f0000000000000000000000000000000000000000000000000000000000000000163383611a94565b5f8183600201546111139190612054565b90508060145f600e5481526020019081526020015f206004015f82825461113a9190611fbb565b9091555050604051828152339086907ff3f402280ef0a7905e124aa621b65eaeb2725c343e8b36d398ed78c29daf285c9060200160405180910390a350505050610a8460018055565b61118b611e21565b611193611e21565b5f5b600660ff821610156111eb57600e545f90815260166020908152604080832060ff8516808552925290912054908390600681106111d4576111d4612067565b6020020152806111e38161207b565b915050611195565b50919050565b6017602052815f5260405f20818154811061120a575f80fd5b5f918252602090912001546001600160a01b03169150829050565b60028160068110610870575f80fd5b61123c611a6a565b600e545f908152601460205260409020600281015442106112905760405162461bcd60e51b815260206004820152600e60248201526d109a59191a5b99c818db1bdcd95960921b604482015260640161076f565b600660ff8416106112d45760405162461bcd60e51b815260206004820152600e60248201526d125b9d985b1a5908189d58dad95d60921b604482015260640161076f565b60115482101561131a5760405162461bcd60e51b815260206004820152601160248201527010995b1bddc81b5a5b9a5b5d5b48189a59607a1b604482015260640161076f565b600e545f908152601560209081526040808320338452909152902054156113715760405162461bcd60e51b815260206004820152600b60248201526a105b1c9958591e48189a5960aa1b604482015260640161076f565b6113a66001600160a01b037f0000000000000000000000000000000000000000000000000000000000000000163330856119fd565b6040805160a08101825285815260ff80861660208084018281528486018881525f6060870181815260808801828152600e80548452601587528a842033855287528a842099518a55945160018a0180549190991660ff199182161790985592516002890155516003880180549115159190971617909555516004909501949094559254825260168352838220908252909152908120805491611447836120b2565b9091555050600581018054905f61145d836120b2565b9091555050600e5460405160ff851681523391907f7eb6f2cd5f2afa633635fcc9a38b8f7be4d28d9a1969ec6771e361d962245bb99060200160405180910390a3506114a860018055565b505050565b6114b56119d1565b6001600160a01b03919091165f908152601960205260409020805460ff1916911515919091179055565b6114e76119d1565b5f811180156114f65750606481105b6115335760405162461bcd60e51b815260206004820152600e60248201526d125b9d985b1a59081c99599d5b9960921b604482015260640161076f565b601055565b6115406119d1565b6001600160a01b03811661156957604051631e4fbdf760e01b81525f600482015260240161076f565b610a8481611ac5565b61157a611a6a565b600e545f90815260146020526040902060038101544210156115de5760405162461bcd60e51b815260206004820152601760248201527f52657665616c20706572696f64206e6f7420656e646564000000000000000000604482015260640161076f565b600681015460ff16156116275760405162461bcd60e51b8152602060048201526011602482015270105b1c9958591e48199a5b985b1a5e9959607a1b604482015260640161076f565b600e545f9081526017602090815260408083208054825181850281018501909352808352919290919083018282801561168757602002820191905f5260205f20905b81546001600160a01b03168152600190910190602001808311611669575b5050505050905061169a600e5482611b14565b5f805f5b835181101561186057600e545f908152601560205260408120855182908790859081106116cd576116cd612067565b60200260200101516001600160a01b03166001600160a01b031681526020019081526020015f20600401549050600185516117089190612054565b82036117335784828151811061172057611720612067565b6020026020010151935080925050611860565b600e545f9081526015602052604081208187611750866001611fbb565b8151811061176057611760612067565b60200260200101516001600160a01b03166001600160a01b031681526020019081526020015f206004015490505f82828461179b9190612054565b6117a690606461201e565b6117b09190612035565b9050600f5481116117e2578684815181106117cd576117cd612067565b60200260200101519550829450505050611860565b8684815181106117f4576117f4612067565b60200260200101516001600160a01b0316600e547f26f92cf5b346078e86799038efcbe2f287f85788372b0c55204c55ba8c8c36cf8584604051611842929190918252602082015260400190565b60405180910390a35050508080611858906120b2565b91505061169e565b506006840180546001600160a01b038416610100026001600160a81b0319909116176001179055600784018190555f805b845181101561196857836001600160a01b03168582815181106118b6576118b6612067565b60200260200101516001600160a01b03161461195657600e545f908152601560205260408120865182908890859081106118f2576118f2612067565b60200260200101516001600160a01b03166001600160a01b031681526020019081526020015f206004015490505f606460105460646119319190612054565b61193b908461201e565b6119459190612035565b90506119518185611fbb565b935050505b80611960816120b2565b915050611891565b50600e546004860154604080516001600160a01b03871681526020810186905280820192909252517f8fe48cb2788518c502edabdec52a7efc6f23c59ea723e715f57d5fb39990b3269181900360600190a26119c381611c7a565b5050505050610f7c60018055565b5f546001600160a01b03163314610f7c5760405163118cdaa760e01b815233600482015260240161076f565b6040516001600160a01b038481166024830152838116604483015260648201839052611a649186918216906323b872dd906084015b604051602081830303815290604052915060e01b6020820180516001600160e01b038381831617835250505050611db5565b50505050565b600260015403611a8d57604051633ee5aeb560e01b815260040160405180910390fd5b6002600155565b6040516001600160a01b038381166024830152604482018390526114a891859182169063a9059cbb90606401611a32565b5f80546001600160a01b038381166001600160a01b0319831681178455604051919092169283917f8be0079c531659141344cd1fd0a4f28419497f9722a3daafe3b4186f6b6457e09190a35050565b80515f5b81811015611a64575f611b2c826001611fbb565b90505b82811015611c675760155f8681526020019081526020015f205f858381518110611b5b57611b5b612067565b60200260200101516001600160a01b03166001600160a01b031681526020019081526020015f206004015460155f8781526020019081526020015f205f868581518110611baa57611baa612067565b60200260200101516001600160a01b03166001600160a01b031681526020019081526020015f20600401541015611c5557838181518110611bed57611bed612067565b6020026020010151848381518110611c0757611c07612067565b6020026020010151858481518110611c2157611c21612067565b60200260200101868481518110611c3a57611c3a612067565b6001600160a01b039384166020918202929092010152911690525b80611c5f816120b2565b915050611b2f565b5080611c72816120b2565b915050611b18565b600e8054905f611c89836120b2565b91905055505f60125442611c9d9190611fbb565b90505f60135482611cae9190611fbb565b6040805161012081018252600e805480835242602080850191825284860189815260608601888152608087018c81525f60a0890181815260c08a0182815260e08b01838152610100808d018581529a855260148952938d90209b518c55975160018c0155945160028b0155925160038a01559051600489015590516005880155905160068701805494516001600160a81b0319909516911515610100600160a81b031916919091176001600160a01b039094169091029290921790915590516007909301929092555482518681529182018790529293507f44c53be110c6aa83aa83cd02e351ed172359268272ee1b5d31c0fe48db35c6c7910160405180910390a2505050565b5f8060205f8451602086015f885af180611dd4576040513d5f823e3d81fd5b50505f513d91508115611deb578060011415611df8565b6001600160a01b0384163b155b15611a6457604051635274afe760e01b81526001600160a01b038516600482015260240161076f565b6040518060c001604052806006906020820280368337509192915050565b5f60208284031215611e4f575f80fd5b5035919050565b5f8060408385031215611e67575f80fd5b50508035926020909101359150565b80356001600160a01b0381168114611e8c575f80fd5b919050565b5f8060408385031215611ea2575f80fd5b82359150611eb260208401611e76565b90509250929050565b803560ff81168114611e8c575f80fd5b5f8060408385031215611edc575f80fd5b82359150611eb260208401611ebb565b60c0810181835f5b6006811015611f13578151835260209283019290910190600101611ef4565b50505092915050565b5f805f60608486031215611f2e575f80fd5b83359250611f3e60208501611ebb565b9150604084013590509250925092565b5f60208284031215611f5e575f80fd5b611f6782611e76565b9392505050565b5f8060408385031215611f7f575f80fd5b611f8883611e76565b915060208301358015158114611f9c575f80fd5b809150509250929050565b634e487b7160e01b5f52601160045260245ffd5b8082018082111561070e5761070e611fa7565b6020808252600d908201526c139bdd08199a5b985b1a5e9959609a1b604082015260600190565b6020808252600f908201526e105b1c9958591e4818db185a5b5959608a1b604082015260600190565b808202811582820484141761070e5761070e611fa7565b5f8261204f57634e487b7160e01b5f52601260045260245ffd5b500490565b8181038181111561070e5761070e611fa7565b634e487b7160e01b5f52603260045260245ffd5b5f60ff821660ff810361209057612090611fa7565b60010192915050565b60ff828116828216039081111561070e5761070e611fa7565b5f600182016120c3576120c3611fa7565b506001019056fea2646970667358221220d3aaa9f2ac8d9c4a1d0bbab9a0699dc27ef4366163174a994d55e74985ba9ee064736f6c63430008140033","linkReferences":{}},"methodIdentifiers":{"NUM_BUCKETS()":"c56ca84e","auctions(uint256)":"571a26a0","authorizedFeeders(address)":"d5ed6e95","biddingDuration()":"c8e7b31d","bids(uint256,address)":"3f1ffcec","bucketCounts(uint256,uint8)":"358a5ca7","bucketMaxs(uint256)":"3695e3ed","bucketMins(uint256)":"bdcafa25","claimRefund(uint256)":"5b7baf64","claimUnrevealedDeposit(uint256)":"84f4e376","claimWinnings(uint256)":"677bd9ff","claimed(uint256,address)":"120aa877","currentAuctionId()":"0c0b86ca","feedJackpot(uint256)":"338205d2","finalizeAuction()":"f77282ab","generateCommitment(uint256,bytes32)":"05ad0b63","getBucket(uint256)":"65fe45ed","getBucketCounts()":"91f65c27","getCurrentAuction()":"dcb66f12","hasBid(address)":"d2639dbf","hashToken()":"b8b7edb2","losersRefundPercent()":"8aaeb728","maxGapPercent()":"647ed817","minBid()":"3e109a19","owner()":"8da5cb5b","placeBid(bytes32,uint8,uint256)":"d0544584","renounceOwnership()":"715018a6","revealBid(uint256,bytes32)":"62c5424a","revealDuration()":"886a6de1","revealedBidders(uint256,uint256)":"baa6e40d","seedJackpot(uint256)":"02950fb9","setAuthorizedFeeder(address,bool)":"dae69dbe","setLosersRefundPercent(uint256)":"f078c5f8","setMaxGapPercent(uint256)":"14156ad0","setMinBid(uint256)":"12874688","transferOwnership(address)":"f2fde38b"},"id":0}